:06000000020F900213A59F
:03000B0002128C52
:030013000219418E
:0300230002194679
:03002B0002136558
:030033000218E8C8
:030043000219445B
:030053000219424D
:10010000020342E86480F8E933E83360110460F0E8
:10011000ED33EC337009E8FCE9FDEAFEEBFF220465
:1001200060DED3EB9FEA9EE99DE8C2E78CF0C2F760
:1001300095F0400CE8CCF8E9CDF9EACEFAEBCFFB2C
:1001400012030D85D0F05804700320D5B3E8047075
:10015000075002B2D502034C92D5EC0460F7E4CC10
:10016000C0E0C398F8603B94186008400DD0E0FBF5
:10017000020324E4FBFAC9FC8028E830E406E4C961
:10018000FBE4CAFCE830E305E4C9CACBFCE8540749
:100190006010F8C3E913F9EA13FAEB13FBEC13FC54
:1001A000D8F130F52FC3E49CFCEF9BFFEE9AFEEDF7
:1001B00099FDD0E0FBEF4E4D4C701222DB030203A1
:1001C00049EC2CFCEF33FFEE33FEED33FDED30E771
:1001D000EB020324EF2BFFEE3AFEED39FDD0E0FBFE
:1001E00050130BBB000302034CED13FDEE13FEEFA7
:1001F00013FFEC13FC02032402034CEC5D046005C6
:10020000E85904700302034212030D580460F6EC2F
:100210004860F2EC7004FDFEFF22C860DB2481C858
:100220005009C398600250060203499850CAF582EB
:10023000E9294B4A7005AB8202033875F0007C1A3D
:100240007880C3EF9BEE9AED99400DC3EF9BFFEED4
:100250009AFEED99FDE842F0DC23ACF0D0E0FFD04F
:10026000E0FED0E0FDAB8220E7101BEB60BAEC2C87
:10027000FCEF33FFEE33FEED33FD020324E803F819
:1002800030E705C0F075F000EF2FFFEE33FEED33E1
:10029000FD40B830E7C280AA75F020800E75F010DE
:1002A000800575F0087D007E007F003392D530D543
:1002B0000312050FEC334010EF33FFEE33FEED3346
:1002C000FDEC33FCD5F0ED22E5F0247EA2D513CC75
:1002D00092E7CDCEFF22EDD2E7CD33EC3392D52499
:1002E000814006E4FFFEFDFC22FCE4CFCECDCC2411
:1002F000E0501174FF80EDC3CC13CCCD13CDCE13E1
:10030000CECF13CF0470F030D5DE02050FE9D2E76F
:10031000C933E833F892D5EDD2E7CD33EC33FC5056
:1003200002B2D522EC30E7100FBF000C0EBE000861
:100330000DBD00040BEB6014A2D5EB13FCED92E7AE
:10034000FD2274FFFCFDFEFF22E480F8A2D574FFBD
:1003500013FC7D80E480EFBB010689828A83E02262
:100360005002E722BBFE02E32289828A83E49322C1
:10037000EF8DF0A4A8F0CF8CF0A428CE8DF0A42EA1
:10038000FE22BC000BBE0029EF8DF084FFADF022F1
:10039000E4CCF875F008EF2FFFEE33FEEC33FCEE03
:1003A0009DEC984005FCEE9DFE0FD5F0E9E4CEFDF6
:1003B00022EDF8F5F0EE8420D21CFEADF075F008C9
:1003C000EF2FFFED33FD4007985006D5F0F222C322
:1003D00098FD0FD5F0EA22EF2BFFEE3AFEED39FD46
:1003E000EC38FC22C3EF9BFFEE9AFEED99FDEC98F2
:1003F000FC22E88FF0A4CC8BF0A42CFCE98EF0A4B6
:100400002CFC8AF0EDA42CFCEA8EF0A4CDA8F08B95
:10041000F0A42DCC3825F0FDE98FF0A42CCD35F0DB
:10042000FCEB8EF0A4FEA9F0EB8FF0A4CFC5F02E6C
:10043000CD39FEE43CFCEAA42DCE35F0FDE43CFCD5
:100440002275F008758200EF2FFFEE33FECD33CD1D
:10045000CC33CCC58233C5829BED9AEC99E582986A
:10046000400CF582EE9BFEED9AFDEC99FC0FD5F069
:10047000D6E4CEFBE4CDFAE4CCF9A88222B800C1E0
:10048000B90059BA002DEC8BF084CFCECDFCE5F04D
:10049000CBF97818EF2FFFEE33FEED33FDEC33FC94
:1004A000EB33FB10D703994004EB99FB0FD8E5E43D
:1004B000F9FA227818EF2FFFEE33FEED33FDEC331F
:1004C000FCC933C910D7059BE99A4007EC9BFCE9AE
:1004D0009AF90FD8E0E4C9FAE4CCFB2275F010EFEA
:1004E0002FFFEE33FEED33FDCC33CCC833C810D72D
:1004F000079BEC9AE899400AED9BFDEC9AFCE89981
:10050000F80FD5F0DAE4CDFBE4CCFAE4C8F922C365
:10051000E49FFFE49EFEE49DFDE49CFC22EB9FF53E
:10052000F0EA9E42F0E99D42F0EC6480C864809855
:1005300045F022EB9FF5F0EA9E42F0E99D42F0E89B
:100540009C45F022E2FC08E2FD08E2FE08E2FF2200
:10055000E493FC740193FD740293FE740393FF22F1
:10056000E2FB08E2F908E2FA08E2CBF822ECF20832
:10057000EDF208EEF208EFF222D083D082E493F29B
:1005800008740193F208740293F208740393F274EE
:100590000473A42582F582E5F03583F58322D083A8
:1005A000D082F8E4937012740193700DA3A393F8B2
:1005B000740193F5828883E4737402936860EFA3F7
:1005C000A3A380DFE47850F208F208120579000056
:1005D0000000785612057900000000785A1205795B
:1005E00000000000785E12057900000000E47862E7
:1005F000F208F208F208F21218B37850EEF208EF9F
:10060000F27864E4F208740FF2C3EE9410500A78A2
:1006100050E2FE08E2FF4E7007786274FFF2FF229C
:10062000E4FCFD7BA07A867901F81203F2EC120259
:1006300098C004C005C006C0077850E2FC08E2FD7F
:10064000E412029DA804A905AA06AB07E4FFFE7DFB
:10065000807C45120103A804A905AA06AB07D007B0
:10066000D006D005D0041201FB785212056D7852E5
:100670001205441202D6785612056D9019491205DA
:10068000507856120560D312053340059019488002
:100690003E7864E2FE08E290194475F00512059276
:1006A000EE75F005A42583F58312055078561205E2
:1006B00060C312053350207864E2FE08E2901943CB
:1006C00075F005120592EE75F005A42583F583E417
:1006D000937862F20207A378637401F27863E2FB15
:1006E000FFD37865E29F18E2940050030207A3EB62
:1006F00075F005A42444F582E43419F583120550FD
:10070000785A12056DEB75F005A42449F582E4349E
:1007100019F583120550785E12056D785A1205445A
:100720007856120560D31205335070785E12054476
:100730007856120560C31205334060785612056082
:10074000C000785A120544D0001203E4C004C0056A
:10075000C006C007785E120560C0007856120544D6
:10076000D0001203E4A804A905AA06AB07D007D05D
:1007700006D005D004C31205337863E275F0055046
:100780000AA42448F582E434198008A42443F5829D
:10079000E43419F583E49318F280087863E204F2F4
:1007A0000206DC7862E2FF22E4784DF212184DEF87
:1007B00064017003020919121913EF600302091989
:1007C000121909EF640170030209197813E2640138
:1007D0006003020919F212102AEF702A7806E270FB
:1007E0000304F2227F021214B0E4FF12171FEF6419
:1007F0000160030209197826E26003020919121642
:100800000578260208EC12102AEF6403702B780991
:10081000E2700204F2C3780FE2949018E29401505F
:10082000030209197F041214B07829E26003020957
:100830001912188D78290208EC12102AEF64017041
:10084000547809E2B40105E47807F2227807E270EF
:100850000304F2227F01120A58BF01057F0212141D
:10086000B07F0112171FBF010D7827E27008121028
:10087000AC78277401F2C3780FE294D018E29407A1
:100880005003020919782AE2600302091904F27878
:1008900049F202170412102AEF640270537809E239
:1008A000B40104E418F2227808E2700304F2227F13
:1008B00002120A58BF01057F031214B07F021217FB
:1008C0001FBF010D7828E2700812111478287401F6
:1008D000F2C3780FE2949018E29401403C7F051235
:1008E00014B0782BE270321213E0782B7401F222EC
:1008F000E4784DF2784DE2FFC39406501374062F4E
:10090000F8E4F274262FF8E4F2784DE204F280E481
:10091000E4780EF208F212188322E4784DF208F21D
:1009200008F2121417C37885E2946418E294005018
:1009300003020A5712164CEF64016006121913BF26
:10094000010B121913EF64026003020A541205C46A
:10095000784FEFF2120DB2784DEEF208EFF2121965
:1009600013EF64026027784DE2FE08E2FFE4FCFD2D
:100970007B1C7A0CF9F8D3120533400D786CE20435
:10098000F2E29414400702147FE4786CF21218BB70
:10099000EF64017040784FE2FFC3648094AD50076C
:1009A000EF64809480500E121909EF6003020A541C
:1009B0001219388038121909BF0105E4FF12190E07
:1009C0001218C3BF01081219387F07020A51121901
:1009D000357F06807C784FE2FFC3648094B2500775
:1009E000EF64809480500D121909EF70677F011237
:1009F000190E8060121909BF0105E4FF12190E7863
:100A00004DE2FE08E2FFE4FCFD7B487A0DF9F8D3E5
:100A1000120533500D7F071214B0E4786DF208F21E
:100A20008032784DE2FE08E2FFE4FCFD7B487A0D5F
:100A3000F9F8D3120533401C786DE2701208E20415
:100A4000F2E29414400E187401F2E408F280057F7B
:100A5000061214B01217F322784EEFF2E408F212E5
:100A6000191D784FEFF2121918EF6003020AFE7891
:100A70004EE2FE6401704508E2FDB401157818E20B
:100A8000C39464400A7825E294414003020B4A7FF4
:100A90000122EDB4020E7825E2C394414003020B1B
:100AA0004A7F0122784FE264036003020B4A781800
:100AB000E2C394644003020B4A7F0122EE640260A9
:100AC00003020B4A784FE2FEB401127818E2D39485
:100AD0002D50077825E2941140707F0122EEB40278
:100AE0000B7825E2D3941140617F0122784FE264B4
:100AF0000370577818E2D3942D404F7F01221219CA
:100B000018EF64017044784EE2FEB4011C08E275EF
:100B1000F003A4241BF8E2FF7818E2C39F40077893
:100B200025E2944150247F0122EEB4021D784FE269
:100B300075F003A4241AF8E2FF7818E2D39F500757
:100B40007825E2941140037F01227F002282160063
:100B500000824A0000820E000081050081030081AE
:100B6000120081480081130081040081490087063A
:100B700000000000000000872600000000000000C8
:100B800081182D812511811001810D0081020081C4
:100B90004700814C008114008115008111008C19DF
:100BA000000000012450022E5A0338649A2D0000E0
:100BB00001110212031404160519061C071F08234D
:100BC00009280A2F0B370C418200000082840000A4
:100BD000816C00818800818600818700816E0081A0
:100BE0006D00816F009470000000000000000000A4
:100BF0000000000000000000000000818E018191D3
:100C000002818C00818B00819200828F0000818D97
:100C10000082890000C102819800819900819700BB
:100C20008295000082930000819B00819A00C100A0
:100C3000C10100121913BF02121218BBEF64017038
:100C400003020D0D7F01121858801A1218BBBF0144
:100C5000145387807F0212185812189712193512F0
:100C600018A1020CEF12184DEF640170657803F2C1
:100C7000784AF208F27812E2700853878004F2781A
:100C800005F27816E2FE08E2FF64044E700478482C
:100C900004F2C3EF9490EE94014072121913BF0155
:100CA000201218977F071214B012193512193B122F
:100CB00018A1E4FF121858E4FF12186312160580F9
:100CC00009121913EF700312147FE47805F27816F5
:100CD000802E121913EF702C7848E26401702E7880
:100CE0000304F2C3784BE2940418E29400401EE43B
:100CF0007805F27848F27803F27816F208F2784A2A
:100D0000F208F222121913BF010312147F22E478B1
:100D10004DF208F212117C121918EF6402700302EE
:100D20000DB1121913EF64017003020DB11218FA1C
:100D3000EF6401607C121909BF010AE4FF1215B9C2
:100D4000E4FF0215931218CBEF6401600320835473
:100D5000120E531218FF784DEFF2121904784EEF6D
:100D6000F2121918EF702912191DBF010280271203
:100D7000191DBF020A784DE2FF121593E48021127B
:100D8000191DEF6403702AFF121593784EE280104C
:100D9000121918BF011B784DE2FF121593784EE22D
:100DA000FF0215B9E4FF121593E4FF1215B91218EA
:100DB0004022E47850F20812057900000000E4783F
:100DC00050F27850E2FFC3940A5024EF25E02471DA
:100DD000F9E3700219E370101218237850E225E04D
:100DE0002470F8EEF208EFF27850E204F280D312A9
:100DF0001823786FE225E02470F8EEF208EFF2781D
:100E00006FE204F2E2C3940A4002E4F2E47850F2A2
:100E10007851120560C0007850E225E02470F8E2B5
:100E2000FE08E2FFE4FCFDD0001203D77851120562
:100E30006D7850E204F2E2B40AD67851120544E427
:100E40007B0AFAF9F812047D785112056D78511277
:100E500005442220830D7818E27814F27825E27890
:100E600015F2227818E2FF7814E2B5070CE478470F
:100E7000F27814EFF2E4784CF27804E264017071D5
:100E8000F27811F27847E2701A7814E2FF7818E2EB
:100E9000C39FFFE49400FE7C007D19120382EF04DF
:100EA0007847F2784CE2701A7815E2FF7825E2C3B1
:100EB0009FFFE49400FE7C007D19120382EF04780A
:100EC0004CF27818E2FF7814E2C39F4004EFF280FE
:100ED000097847E2FF7814E22FF27825E2FF7815CF
:100EE000E2C39F4003EFF222784CE2FF7815E22F35
:100EF000F222E4FD7866F208F208740FF20874FF3B
:100F0000F2E408F208F2FBFA12123C43AD40300260
:100F1000FDC202AFAFEF75F010A4FFE5AEC4540FF1
:100F20007A002FFBEA35F0FAC3786BE29B18E29A5D
:100F30005005EAF208EBF2D37869E29B18E29A4096
:100F400005EAF208EBF27867E22BF218E23AF20DCA
:100F5000EDB40AB77868E2FE08E2FFC37867E29F63
:100F6000FF18E29EFEF208EFF2786AE2FC08E2FD6A
:100F7000C3EF9D7867F2EE9C18F2E2FE08E2780378
:100F8000CEC313CE13D8F9FF7866EEF208EFF22243
:100F900078FFE4F6D8FD9000007F007E01E4F0A326
:100FA000DFFCDEFA758120020FE50216CCE493A384
:100FB000F8E493A34003F68001F208DFF48029E40B
:100FC00093A3F85407240CC8C333C4540F4420C857
:100FD000834004F456800146F6DFE4800B010204EE
:100FE0000810204080900B4DE47E019360BCA3FF6D
:100FF000543F30E509541FFEE493A360010ECF5423
:10100000C025E060A840B8E493A3FAE493A3F8E411
:1010100093A3C8C582C8CAC583CAF0A3C8C582C87D
:10102000CAC583CADFE9DEE780BE784E7406F27F68
:1010300005120EF27800EEF208EFF24E70028067B1
:101040007800E2FE08E2FFC394CEEE9402400FD394
:10105000EF94F6EE94025006E4784EF28049C3EF26
:101060009405EE94054010D3EF942DEE94055007AF
:10107000784E7401F28030C3EF94DDEE940340109B
:10108000D3EF9405EE94045007784E7402F2801763
:10109000C3EF9480EE9402400ED3EF94A8EE940236
:1010A0005005784E7403F2784EE2FF22E4784EF257
:1010B00012191D784EEFF2121918EF70157818E218
:1010C000C394645006E22405F2802A78187464F20E
:1010D0008023121918BF011D784EE275F003A42475
:1010E0001BF8E2FF7818E2C39F5006E22404F28066
:1010F000047818EFF27825E2C3944178105005E2A5
:1011000004F28003740CF27810E225E0242EF8E259
:101110007825F222E4784EF212191D784EEFF21281
:101120001918EF70157818E2D3942D4006E224FBCD
:10113000F2802A7818742DF28023121918BF011D2D
:10114000784EE275F003A4241AF8E2FF7818E2D38F
:101150009F4006E224FCF280047818EFF27825E242
:10116000D3941178104005E214F280037401F278F0
:1011700010E225E0242EF8E27825F2227849E26494
:1011800001705F7802E2C39403502B780DE2B450F3
:1011900007E4F27802E204F2780DE2FF70077818B3
:1011A0007464F2800AEFC394284004E47818F2785B
:1011B00018E2FF0215B9E47849F27802F2780DF2EC
:1011C000121918EF70077818742DF2800B12191885
:1011D000BF010578187424F278107401F278257430
:1011E00011F222121913EF64026050121913EF6406
:1011F0000160483083451218CBBF0117788C740109
:10120000F2E47889F208F208F2788DE2C3940240A1
:101210002A8025E4788CF208F2788FF208F2788B35
:1012200004F27889E2FE08E2FFE4FCFD7B607AEAE2
:10123000F9F8D312051D500312147F22EF640560E4
:1012400004EFB4010A75FEC253FF7F0000800CEF6B
:10125000B4040875FEC243FF800000EF4480F5AD82
:10126000EFC39408500F7401A807088002C333D855
:10127000FCF5AB8011EF24F8FF7401A80708800289
:10128000C333D8FCF5AC43A840D2AF22C0E0C0F0D5
:10129000C083C082C0D075D000C000C001C002C0F1
:1012A00003C004C005C006C007758A78758CEC12AF
:1012B00017A112162912156912166F12192B121383
:1012C00023D007D006D005D004D003D002D001D05F
:1012D00000D0D0D082D083D0F0D0E032AB077855A8
:1012E00012057900000000E4FEAF03120EF2E4FCE8
:1012F000FD785512056DE47FE87E03FDFC785512FC
:1013000005601203F2E4FB7A10F9F812047DE47B25
:10131000607A09F9F81203F2E47BE87A03F9F8122B
:10132000047D22788CE2B4012B7890E22401F2183B
:10133000E23400F2E2FE08E2FFE4FCFD7B607AEAC0
:10134000F9F8D312051D501C788DE204F2E4788F71
:10135000F208F222788BE2B4010A18E22401F218B2
:10136000E23400F222C0E0C0F0C083C082C0D07579
:10137000D000C000C001C002C003C004C005C00648
:10138000C0071214E012150FC2CFD007D006D00547
:10139000D004D003D002D001D000D0D0D082D083EE
:1013A000D0F0D0E032C0E0C0F0C083C082C0D075C1
:1013B000D000C000C001C002C003C004C005C00608
:1013C000C007121832D007D006D005D004D003D001
:1013D00002D001D000D0D0D082D083D0F0D0E03283
:1013E000E4784EF212191D784EEFF2121918EF70D0
:1013F000077818742DF28014121918BF010E784E58
:10140000E275F003A4241AF8E27818F27810740157
:10141000F278257411F2227888E2C39428402E785D
:1014200086E2940550047F0680117886E2FFC3941B
:1014300005400DEFD3940F50077F081214B08004BD
:10144000E47886F27886E204F2E47888F222E4789E
:1014500050F212191D7850EFF2121918EF70077838
:1014600018742DF2800E7850E275F003A4241AF857
:10147000E27818F278107401F278257411F22212D1
:1014800018D312186E12193E1218DA1218AA12196D
:10149000271219221217391217CC1216E91217E067
:1014A0007F0112185812160543870200000000221F
:1014B000EF12059E14CD0214CD0314D00414D305ED
:1014C00014D60614D90714DC08000014DF021753E1
:1014D00002153E02176D02193202192F1218D3227B
:1014E0001218EEEF7004789BF222789BE204F2125D
:1014F00018EE789BE2FEC39F4008EE94325003C280
:101500008022EEC394324006E4789BF2D28022120D
:1015100018F4EF7004789AF222789AE204F2121822
:10152000F4789AE2FEC39F4008EE94325003C281E1
:1015300022EEC394324006E4789AF2D28122E47813
:1015400050F27899E270217850E2D394025011124F
:1015500019327F647E001216AD7850E204F280E703
:1015600012193278997401F222E4FF781304F274AC
:10157000062FF8E2B4010B780FE22401F218E234EE
:1015800000F20FEFB406E87849E2B40105780DE205
:1015900004F222EF7008C2807895F208F22220CA85
:1015A00002D2CA7E007C007D321203707D64120379
:1015B000827895EEF208EFF222EF7008C2817893FC
:1015C000F208F22220CA02D2CA7E007C007D3212CA
:1015D00003707D641203827893EEF208EFF22275B5
:1015E0008E06438901758A78758CECC28CD2A9D29B
:1015F0008CE4F5C9F5C875CBD175CA20C2CAD2AD85
:10160000C2CAD2AF22121913BF0108E47892F2FFC6
:101610000218637892E2C394035005E204F2800555
:1016200078927401F212144E227805E2B4010B781C
:1016300017E22401F218E23400F27803E2B4010B5D
:10164000784BE22401F218E23400F222E4FFFE7447
:10165000062FF8E2B401027E010FEFB406F1EE644A
:1016600001600612184DBF01037F01227F00221284
:1016700018CBBF01117811E204F2E2D39402400DBD
:1016800078047401F222E47811F27804F222759A57
:101690003B759B3B7591887592CF75A1C075A2C0B3
:1016A000439AC043913043A10C43D90322D3EF9412
:1016B00000EE94004015E4FCFD0DBD00010CBC04DF
:1016C000F8BDB0F5EF1F70E51E80E222121814126B
:1016D00018041215DF121943120C3312091A1207DB
:1016E000A8120D0E1211E380EFE47884F208F2786C
:1016F0006CF2FF12190EE4786DF27888F27886F2B7
:10170000786EF222121918EF70047F018008121906
:1017100018BF0105E4FF12186378927401F2227475
:10172000062FF8E2B4010FC3780FE2941418E29484
:101730000040037F01227F00227818742DF2781078
:101740007401F278257411F2E4FF121593E4FF128C
:1017500015B9227898E2640160121219327F647E12
:10176000001216AD12193278987401F2227897E2BD
:10177000640160121219327F647E001216AD1219D4
:101780003278977401F222E94A601512035760100B
:10179000F5993000FDC200740129F9E43AFA80EBB2
:1017A000227885E22401F218E23400F27887E2B46C
:1017B000010408E204F222EFB40A097599FF30002F
:1017C000FDC200228F993000FDC20022E4788CF225
:1017D00008F2788FF208F2788BF27889F208F22218
:1017E000E47816F208F27805F27812F27848F27886
:1017F00003F222C37885E2946418E294004004E482
:10180000F208F22212168E1218D31218DA121935B3
:1018100012193E2275BA01E4F5BB43A80143B80191
:10182000D2AF22E4FE7F041212DCEF25E0FFEE339C
:10183000FE22121913EF6402600578057401F2228A
:10184000E47847F2784CF27814F208F22212187910
:10185000EF7F0070027F0122788EE26F6004788E45
:10186000EFF2227891E26F60047891EFF22275FE38
:10187000C153FF7FE4789BF222209004E4FF8002B2
:101880007F0122E47898F208F27897F222308303FD
:1018900002193E12193B2275FEC143FF8043CF104F
:1018A0002243A1C043A2C0C2A62230CA02C2CAE4D7
:1018B000F5D222E4FFFE0F120EF2227F0030A002CA
:1018C0007F01227F003096027F01227F003082025A
:1018D0007F0122D297D284D2852253A18053A28045
:1018E000227B007A0079002253ADEFD20232789544
:1018F00008E2FF22789308E2FF227849E2FF22788B
:1019000015E2FF227814E2FF227887E2FF2278872F
:10191000EFF222788EE2FF227891E2FF227892E2C3
:10192000FF22C28EC2AC2253AD7F2243CF1022C20F
:101930009722B29722C2A722D2A722D28322C283A1
:101940002232322232223222FB000737A800000561
:1019500077380500042BF80A000335180F00027CC5
:1019600054140001F0E019000186A01E0001356A40
:10197000230000F6AE280000C5EE2D00009FC43203
:10198000000081A637000069D23C000056CC41001F
:031990000047907D
:00000001FF
